10400000         20377558800014317392101PP   0000   0222170003000000401 PRONATEC / SENAI - SERVICO NACCAIXA                                   20105201504032600019205001600                                                      000            
10400011C2001030 20377558800014317392101000101      0222170003000000401 PRONATEC / SENAI - SERVICO NAC                                        RUA MANOEL GONCALVES GUIMARAES00195               CAMPINA GRANDE      58407363PB        00        
1040001300001A0007001040004340013001555614 MARIA DE LOURDES GOMES PATRIOT150469              30042015BRL000000000000000000000000012000000113135   01S0  01300420150000000000120001 20500 1956                            00          000        
1040001300002B   100003488459446RUA MAJ FELICIANO, S/N        00000               CRUZEIRO       PRINCESA ISABEL     58755000PB3004201500000000000000000000000000000000000000000000000000000000000000000000000000000000000000000000000000000000 
1040001300003Z                                                                6A1748B62EA3925A98B661000                                                                                                                                         
1040001300004A0007001040004340013001567639 DIYEGGO WESLLEY TEN RIO DE MED150470              30042015BRL000000000000000000000000012000000113136   01S0  01300420150000000000120001 20500 1956                            00          000        
1040001300005B   100007063241451RUA CICERO BEZERRA            00000               MAIA           PRINCESA ISABEL     58755000PB3004201500000000000000000000000000000000000000000000000000000000000000000000000000000000000000000000000000000000 
1040001300006Z                                                                7D17004696539225D18BB1000                                                                                                                                         
1040001300007A0007001040004000013000385166 VANESSA RICARTE FERNANDES     150471              30042015BRL000000000000000000000000016000000113137   01S0  01300420150000000000160001 20500 1956                            00          000        
1040001300008B   100004915975410RUA PADRE JOAQUIM CIRILO DE S 00000               CENTRO         SAO JOAO DO RIO DO P58910000PB3004201500000000000000000000000000000000000000000000000000000000000000000000000000000000000000000000000000000000 
1040001300009Z                                                                A817B3E00FA3923DF76DD1000                                                                                                                                         
1040001300010A0007001040055840013000297956 EVELMA MARIA DA CONCEI  O     150472              30042015BRL000000000000000000000000018000000113138   01S0  01300420150000000000180001 20500 1956                            00          000        
1040001300011B   100004861935431CNJ.CEOP                      00000               CENTRO         LASTRO              58820000PB3004201500000000000000000000000000000000000000000000000000000000000000000000000000000000000000000000000000000000 
1040001300012Z                                                                1017AEF9D33392F5673661000                                                                                                                                         
1040001300013A0007001040055840013000351560 FERNANDA MIRELLY CELESTINA NOG150473              30042015BRL000000000000000000000000018000000113139   01S0  01300420150000000000180001 20500 1956                            00          000        
1040001300014B   100009761671402PEDRO ABRANTES                00000               CENTRO         LASTRO              58820000PB3004201500000000000000000000000000000000000000000000000000000000000000000000000000000000000000000000000000000000 
1040001300015Z                                                                8F176DDB0703929D288441000                                                                                                                                         
1040001300016A0007001040055840013000351250 FRANCIMARA GOMES SARMENTO     150474              30042015BRL000000000000000000000000018000000113140   01S0  01300420150000000000180001 20500 1956                            00          000        
1040001300017B   100007169455412RUA PEDRO ABRANTES            00000               CENTRO         LASTRO              58820000PB3004201500000000000000000000000000000000000000000000000000000000000000000000000000000000000000000000000000000000 
1040001300018Z                                                                9717291573E392B9AF9551000                                                                                                                                         
1040001300019A0007001040004340013001567639 DIYEGGO WESLLEY TEN RIO DE MED151096              30042015BRL000000000000000000000000016000000113141   01S0  01300420150000000000160004 20500 1959                            00          000        
1040001300020B   100007063241451RUA CICERO BEZERRA            00000               MAIA           PRINCESA ISABEL     58755000PB3004201500000000000000000000000000000000000000000000000000000000000000000000000000000000000000000000000000000000 
1040001300021Z                                                                7C170BF450239273E5AAA1000                                                                                                                                         
1040001300022A0007001040357180013000129629 ALINE CARVALHO DE LIMA        151097              30042015BRL000000000000000000000000010000000113142   01S0  01300420150000000000100004 20500 1959                            00          000        
1040001300023B   100010006773460RUA JO O RODRIGUES            00000               CENTRO         SANTA INES          58978000PB3004201500000000000000000000000000000000000000000000000000000000000000000000000000000000000000000000000000000000 
1040001300024Z                                                                331769473073925A71AEE1000                                                                                                                                         
1040001300025A0007001040357180013000129084 ALYSON CARVALHO DE LIMA       151098              30042015BRL000000000000000000000000010000000113143   01S0  01300420150000000000100004 20500 1959                            00          000        
1040001300026B   100010945459459RUA JO O RODRIGUES NASCIMENTO,00000               CENTRO         SANTA INES          58978000PB3004201500000000000000000000000000000000000000000000000000000000000000000000000000000000000000000000000000000000 
1040001300027Z                                                                7117503B2503929BFA5CC1000                                                                                                                                         
1040001300028A0007001040357180013000114150 VILDELANDIO PEREIRA DA SILVA  151099              30042015BRL000000000000000000000000010000000113144   01S0  01300420150000000000100004 20500 1959                            00          000        
1040001300029B   100007914140430RUA GREGORIO S. LEITE         00000               CENTOR         SANTA INES          58978000PB3004201500000000000000000000000000000000000000000000000000000000000000000000000000000000000000000000000000000000 
1040001300030Z                                                                E717894FBE53926573FDD1000                                                                                                                                         
1040001300031A0007001040004340023000049623 ZELI DE SOUSA FERRAZ          151100              30042015BRL000000000000000000000000010000000113145   01S0  01300420150000000000100004 20500 1959                            00          000        
1040001300032B   100005125241490RUA JOVELINA VIEIRA OLIVEIRA S00000               CENTRO         SANTA INES          58978000PB3004201500000000000000000000000000000000000000000000000000000000000000000000000000000000000000000000000000000000 
1040001300033Z                                                                911786775443921EE5DDD1000                                                                                                                                         
1040001300034A0007001040357180013000128266 MARIA NILMA DA DE MOURA       151101              30042015BRL000000000000000000000000010000000113146   01S0  01300420150000000000100004 20500 1959                            00          000        
1040001300035B   100078935172472RUA JO O RODRIGUES NASCIMENTO,00000               CENTRO         SANTA INES          58978000PB3004201500000000000000000000000000000000000000000000000000000000000000000000000000000000000000000000000000000000 
1040001300036Z                                                                971739420623929DCD8991000                                                                                                                                         
1040001300037A0007001040357180013000112424 DANIELE LOUREN O DA SILVA     151102              30042015BRL000000000000000000000000010000000113147   01S0  01300420150000000000100004 20500 1959                            00          000        
1040001300038B   100012087141479RUA GREG RIO DE SOUZA LEITE - 00000               CENTRO         SANTA INES          58978000PB3004201500000000000000000000000000000000000000000000000000000000000000000000000000000000000000000000000000000000 
1040001300039Z                                                                E2170CCF812392A5535551000                                                                                                                                         
1040001300040A0007001040357180013000105452 EDIVANI GOMES ANDRELINO DE LUC151103              30042015BRL000000000000000000000000010000000113148   01S0  01300420150000000000100004 20500 1959                            00          000        
1040001300041B   100004322733441RUA PROJETADA                 00000               CENTRO         SANTA INES          58302000PB3004201500000000000000000000000000000000000000000000000000000000000000000000000000000000000000000000000000000000 
1040001300042Z                                                                FD17E7618BC39250306BB1000                                                                                                                                         
1040001300043A0007001040357180013000117256 ERIKA CARVALHO DOS SANTOS     151104              30042015BRL000000000000000000000000010000000113149   01S0  01300420150000000000100004 20500 1959                            00          000        
1040001300044B   100070296018406RUA JOSE MARINHO              00000               CENTRO         SANTA INES          58978000PB3004201500000000000000000000000000000000000000000000000000000000000000000000000000000000000000000000000000000000 
1040001300045Z                                                                3917CC29AEB392724A2BB1000                                                                                                                                         
1040001300046A0007001040357180013000129637 FRANCILENE PEREIRA DOS SANTOS 151105              30042015BRL000000000000000000000000010000000113150   01S0  01300420150000000000100004 20500 1959                            00          000        
1040001300047B   100001689324406SITIO VARZEA DA CRUZ          00000               ZONA RURAL     SANTA INES          58978000PB3004201500000000000000000000000000000000000000000000000000000000000000000000000000000000000000000000000000000000 
1040001300048Z                                                                9217ED3A72539226191111000                                                                                                                                         
1040001300049A0007001040357180013000111010 FRANCISCA APARECIDA ALVES     151106              30042015BRL000000000000000000000000010000000113151   01S0  01300420150000000000100004 20500 1959                            00          000        
1040001300050B   100004418219447RUA AFONSO BEZERRA LEITA - S/N00000               CENTRO         SANTA INES          00058000PB3004201500000000000000000000000000000000000000000000000000000000000000000000000000000000000000000000000000000000 
1040001300051Z                                                                93175D87E85392F1F29331000                                                                                                                                         
1040001300052A0007001040357180013000118546 FRANCISCA ELAINE PAULO DE ANDR151107              30042015BRL000000000000000000000000010000000113152   01S0  01300420150000000000100004 20500 1959                            00          000        
1040001300053B   100004928329430SIT MAE CABOCLA               00000               CENTRO         SANTA INES          58978000PB3004201500000000000000000000000000000000000000000000000000000000000000000000000000000000000000000000000000000000 
1040001300054Z                                                                2E170C597F0392B799A661000                                                                                                                                         
1040001300055A0007001040357180013000128010 HELENA MARIELLY PAULO DE ANDRA151108              30042015BRL000000000000000000000000010000000113153   01S0  01300420150000000000100004 20500 1959                            00          000        
1040001300056B   100008699494467SIT MAE CABOCLA               00000               CENTRO         SANTA INES          58978000PB3004201500000000000000000000000000000000000000000000000000000000000000000000000000000000000000000000000000000000 
1040001300057Z                                                                B217D373E353926C581CC1000                                                                                                                                         
1040001300058A0007001040357180013000124252 JARDEL LAURINDO LOPES         151109              30042015BRL000000000000000000000000010000000113154   01S0  01300420150000000000100004 20500 1959                            00          000        
1040001300059B   100012692974492RUA MANOEL JOSE DE FIGUEIREDO 00000               CENTRO         SANTA INES          58978000PB3004201500000000000000000000000000000000000000000000000000000000000000000000000000000000000000000000000000000000 
1040001300060Z                                                                EC1780C1D6539272D9B221000                                                                                                                                         
1040001300061A0007001040357180013000129220 JESUS KLEBERSON ALVES FEITOSA 151110              30042015BRL000000000000000000000000010000000113155   01S0  01300420150000000000100004 20500 1959                            00          000        
1040001300062B   100070295838418RUA JOSE MARINHO              00000               CENTRO         SANTA INES          58978000PB3004201500000000000000000000000000000000000000000000000000000000000000000000000000000000000000000000000000000000 
1040001300063Z                                                                10177ECE03F392BD920BB1000                                                                                                                                         
1040001300064A0007001040357180013000118376 JOSE CARLOS ALVES PEREIRA     151111              30042015BRL000000000000000000000000010000000113156   01S0  01300420150000000000100004 20500 1959                            00          000        
1040001300065B   100008470709488RUA MAE CABOCLA S/N           00000               CENTRO         SANTA INES          58978000PB3004201500000000000000000000000000000000000000000000000000000000000000000000000000000000000000000000000000000000 
1040001300066Z                                                                151713BE5D1392432A9771000                                                                                                                                         
1040001300067A0007001040357180023000019413 KALIANE KENIA ALVES DE FIGUEIR151112              30042015BRL000000000000000000000000010000000113157   01S0  01300420150000000000100004 20500 1959                            00          000        
1040001300068B   100007875572428RUA GREG RIO DE SOUZA LEITE - 00000               CENTRO         SANTA INES          58978000PB3004201500000000000000000000000000000000000000000000000000000000000000000000000000000000000000000000000000000000 
1040001300069Z                                                                1B1782A7D5A3927FE33221000                                                                                                                                         
1040001300070A0007001040357180013000104430 KLEBIA KERLONY ALVES DE FIGUEI151113              30042015BRL000000000000000000000000010000000113158   01S0  01300420150000000000100004 20500 1959                            00          000        
1040001300071B   100007875571456RUA JOS  MARINHO S/N          00000               CENTRO         SANTA INES          58978000PB3004201500000000000000000000000000000000000000000000000000000000000000000000000000000000000000000000000000000000 
1040001300072Z                                                                12178037978392B57D4AA1000                                                                                                                                         
1040001300073A0007001040357180013000129688 LUCIENE GALDINO DE SOUSA      151114              30042015BRL000000000000000000000000010000000113159   01S0  01300420150000000000100004 20500 1959                            00          000        
1040001300074B   100005485695418RUA JO O RODRIGUES DE FRANCA, 00000               CENTRO         SANTA INES          58978000PB3004201500000000000000000000000000000000000000000000000000000000000000000000000000000000000000000000000000000000 
1040001300075Z                                                                1E17E84B11F392CC37BFF1000                                                                                                                                         
1040001300076A0007001040357180023000021094 LUCIVANIA GALDINO DE SOUSA    151115              30042015BRL000000000000000000000000010000000113160   01S0  01300420150000000000100004 20500 1959                            00          000        
1040001300077B   100004604686424SIT QUIXABEIRA                00000               AREA RURAL     SANTA INES          58978000PB3004201500000000000000000000000000000000000000000000000000000000000000000000000000000000000000000000000000000000 
1040001300078Z                                                                D717A53A2DF392D813EDD1000                                                                                                                                         
1040001300079A0007001040357180023000010351 MARIA DE LOURDES LAURINDO LOPE151116              30042015BRL000000000000000000000000010000000113161   01S0  01300420150000000000100004 20500 1959                            00          000        
1040001300080B   100003352764409RUA MANOEL JOS  DE FIGUEIREDO 00000               CENTRO         SANTA INES          58978000PB3004201500000000000000000000000000000000000000000000000000000000000000000000000000000000000000000000000000000000 
1040001300081Z                                                                1717CEF1AB4392AE361661000                                                                                                                                         
1040001300082A0007001040357180013000110340 ANTONIELE LOUREN O DA SILVA   151117              30042015BRL000000000000000000000000010000000113162   01S0  01300420150000000000100004 20500 1959                            00          000        
1040001300083B   100008775975459RUA JOS  MARINHO- 70          00000               CENTRO         SANTA INES          58978000PB3004201500000000000000000000000000000000000000000000000000000000000000000000000000000000000000000000000000000000 
1040001300084Z                                                                68177B619883926B66E881000                                                                                                                                         
1040001300085A0007001040357180023000020152 PEDRO VIEIRA DE LUCENA        151118              30042015BRL000000000000000000000000010000000113163   01S0  01300420150000000000100004 20500 1959                            00          000        
1040001300086B   100029442591487RUA  GREG RIO  DE SOUZA LEITE 00000               CENTRO         SANTA INES          58978000PB3004201500000000000000000000000000000000000000000000000000000000000000000000000000000000000000000000000000000000 
1040001300087Z                                                                4F175060EB73928A202111000                                                                                                                                         
1040001300088A0007001040357180013000129858 REGINA KATIA RODRIGUES DE SOUS151119              30042015BRL000000000000000000000000010000000113164   01S0  01300420150000000000100004 20500 1959                            00          000        
1040001300089B   100002663861480RUA JOAO RODRIGUES NASCIMENTO 00000               CENTRO         SANTA INES          58978000PB3004201500000000000000000000000000000000000000000000000000000000000000000000000000000000000000000000000000000000 
1040001300090Z                                                                5717559E437392DE1A1771000                                                                                                                                         
1040001300091A0007001040357180013000105460 SERVIO TULIO NUNES DE LUCENA  151120              30042015BRL000000000000000000000000010000000113165   01S0  01300420150000000000100004 20500 1959                            00          000        
1040001300092B   100003354262478RUA GREG RIO DE SOUZA LEITE - 00000               CENTRO         SANTA INES          58978000PB3004201500000000000000000000000000000000000000000000000000000000000000000000000000000000000000000000000000000000 
1040001300093Z                                                                C81704EABF439241E9DEE1000                                                                                                                                         
1040001300094A0007001040004340023000067141 FRANCINALDA PEREIRA DOS SANTOS151121              30042015BRL000000000000000000000000010000000113166   01S0  01300420150000000000100004 20500 1959                            00          000        
1040001300095B   100007756248457SIT VARZEA DA CRUZ            00000               ZONA RURAL     SANTA INES          58978000PB3004201500000000000000000000000000000000000000000000000000000000000000000000000000000000000000000000000000000000 
1040001300096Z                                                                AF178C11965392C2D3D331000                                                                                                                                         
1040001300097A0007001040357180013000060831 AFONSO FILHO GOMES DOS REIS   151122              30042015BRL000000000000000000000000010000000113167   01S0  01300420150000000000100004 20500 1959                            00          000        
1040001300098B   100006201807497SITIO CAPIM                   00000               ZONA RURAL     SANTA INES          58978000PB3004201500000000000000000000000000000000000000000000000000000000000000000000000000000000000000000000000000000000 
1040001300099Z                                                                5017798C18E39267B0E001000                                                                                                                                         
1040001300100A0007001040357180013000129343 AURINEIDE GOMES DOS REIS      151123              30042015BRL000000000000000000000000010000000113168   01S0  01300420150000000000100004 20500 1959                            00          000        
1040001300101B   100004740194465JOAO CARLOS VIEIRA            00000               CENTRO         SANTA INES          58978000PB3004201500000000000000000000000000000000000000000000000000000000000000000000000000000000000000000000000000000000 
1040001300102Z                                                                CF17296F47839214294CC1000                                                                                                                                         
1040001300103A0007001040357180013000028890 G SSICA MAIARA VIEIRA         151124              30042015BRL000000000000000000000000010000000113169   01S0  01300420150000000000100004 20500 1959                            00          000        
1040001300104B   100009434438497RUA MANOEL VIEIRA             00000               CENTRO         SANTA INES          58978000PB3004201500000000000000000000000000000000000000000000000000000000000000000000000000000000000000000000000000000000 
1040001300105Z                                                                5B1750007AB3926FD6C551000                                                                                                                                         
1040001300106A0007001040357180013000129246 GERLANDIA CARVALHO PEREIRA DOS151125              30042015BRL000000000000000000000000010000000113170   01S0  01300420150000000000100004 20500 1959                            00          000        
1040001300107B   100010022737499SITIO CAPIM                   00000               ZONA RURAL     SANTA INES          58978000PB3004201500000000000000000000000000000000000000000000000000000000000000000000000000000000000000000000000000000000 
1040001300108Z                                                                F9172856D943925C430FF1000                                                                                                                                         
1040001300109A0007001040357180013000129840 JESSICA VITORIA RAMOS VIDAL   151126              30042015BRL000000000000000000000000010000000113171   01S0  01300420150000000000100004 20500 1959                            00          000        
1040001300110B   100009518707421JOAO RODRIGUES DO NASCIMENTO  00000               CENTRO         SANTA INES          58978000PB3004201500000000000000000000000000000000000000000000000000000000000000000000000000000000000000000000000000000000 
1040001300111Z                                                                7D17B73342D39254B9FAA1000                                                                                                                                         
1040001300112A0007001040357180013000129327 JAMERSON GOMES DOS REIS       151127              30042015BRL000000000000000000000000010000000113172   01S0  01300420150000000000100004 20500 1959                            00          000        
1040001300113B   100009348892444SITIO CAPIM                   00000               ZONA RURAL     SANTA INES          58978000PB3004201500000000000000000000000000000000000000000000000000000000000000000000000000000000000000000000000000000000 
1040001300114Z                                                                62170B8EEE3392682EBFF1000                                                                                                                                         
1040001300115A0007001040357180013000129556 JAKELINE FERREIRA DA SILVA    151128              30042015BRL000000000000000000000000010000000113173   01S0  01300420150000000000100004 20500 1959                            00          000        
1040001300116B   100009348651404JOAO RODRIGUES DO NASCIMENTO  00000               CENTRO         SANTA INES          58978000PB3004201500000000000000000000000000000000000000000000000000000000000000000000000000000000000000000000000000000000 
1040001300117Z                                                                C31765B08D93925B2CB661000                                                                                                                                         
1040001300118A0007001040357180013000123485 JUCIVAN FERREIRA DE MELO      151129              30042015BRL000000000000000000000000010000000113174   01S0  01300420150000000000100004 20500 1959                            00          000        
1040001300119B   100011246424479GREGORIO DE SOUSA LEITE       00000               CENTRO         SANTA RITA          58978000PB3004201500000000000000000000000000000000000000000000000000000000000000000000000000000000000000000000000000000000 
1040001300120Z                                                                3B174DB775C3921D7DE001000                                                                                                                                         
1040001300121A0007001040357180013000110626 JOSE GOMES DOS REIS           151130              30042015BRL000000000000000000000000010000000113175   01S0  01300420150000000000100004 20500 1959                            00          000        
1040001300122B   100009250276427SITIO CAPIM                   00000               ZONA RURAL     SANTA INES          58978000PB3004201500000000000000000000000000000000000000000000000000000000000000000000000000000000000000000000000000000000 
1040001300123Z                                                                05178009A08392C9C3BAA1000                                                                                                                                         
1040001300124A0007001040357180013000129513 JOAO RAMOS DE FIGUEIREDO      151131              30042015BRL000000000000000000000000010000000113176   01S0  01300420150000000000100004 20500 1959                            00          000        
1040001300125B   100042409586449JOAO CARLOS DE FIGUEIREDO     00000               CENTRO         SANTA INES          58978000PB3004201500000000000000000000000000000000000000000000000000000000000000000000000000000000000000000000000000000000 
1040001300126Z                                                                7817FAFED3639268CB7FF1000                                                                                                                                         
1040001300127A0007001040357180013000129610 LILIAN FIGUEIREDO HOLANDA     151132              30042015BRL000000000000000000000000010000000113177   01S0  01300420150000000000100004 20500 1959                            00          000        
1040001300128B   100005440754474MANOEL PEREIRA CAMPOS         00000               CENTRO         SANTA INES          58978000PB3004201500000000000000000000000000000000000000000000000000000000000000000000000000000000000000000000000000000000 
1040001300129Z                                                                1B171EC92DC392297D8331000                                                                                                                                         
1040001300130A0007001040357180013000131020 MUCLECIA MARTA ALVES DE MOURA 151134              30042015BRL000000000000000000000000010000000113178   01S0  01300420150000000000100004 20500 1959                            00          000        
1040001300131B   100008421411462JOSE MARINHO                  00000               CENTRO         SANTA INES          58978000PB3004201500000000000000000000000000000000000000000000000000000000000000000000000000000000000000000000000000000000 
1040001300132Z                                                                C6179D0367E392BE9D7661000                                                                                                                                         
1040001300133A0007001040357180013000107749 MARIA DO ROSARIO FERREIRA FRAN151135              30042015BRL000000000000000000000000010000000113179   01S0  01300420150000000000100004 20500 1959                            00          000        
1040001300134B   100003352837481JOAO RODRIGUES DO NASCIMENTO  00000               CENTRO         SANTA INES          58978000PB3004201500000000000000000000000000000000000000000000000000000000000000000000000000000000000000000000000000000000 
1040001300135Z                                                                1E178BFECB2392AFD39881000                                                                                                                                         
1040001300136A0007001040357180013000129351 MARIA APARECIDA GOMES DE SOUSA151136              30042015BRL000000000000000000000000010000000113180   01S0  01300420150000000000100004 20500 1959                            00          000        
1040001300137B   100008747435402MANOE JOSE DE FIGUEIREDO      00000               CENTRO         SANTA INES          59978000PB3004201500000000000000000000000000000000000000000000000000000000000000000000000000000000000000000000000000000000 
1040001300138Z                                                                6F17DC2455F392CDE7FEE1000                                                                                                                                         
1040001300139A0007001040357180023000016201 VANDERLUCIO FABIO VIDA DA SILV151137              30042015BRL000000000000000000000000010000000113181   01S0  01300420150000000000100004 20500 1959                            00          000        
1040001300140B   100002770115405JOAO RODRIGUES DO NASCIMENTO  00000               CENTRO         SANTA INES          58978000PB3004201500000000000000000000000000000000000000000000000000000000000000000000000000000000000000000000000000000000 
1040001300141Z                                                                DB173A64E81392410F2441000                                                                                                                                         
1040001300142A0007001040357180013000129548 VANDERLUCIA FABIA VIDA DA SILV151138              30042015BRL000000000000000000000000010000000113182   01S0  01300420150000000000100004 20500 1959                            00          000        
1040001300143B   100002522396447SITIO MAMOEIRO                00000               ZONA RURAL     SANTA INES          58978000PB3004201500000000000000000000000000000000000000000000000000000000000000000000000000000000000000000000000000000000 
1040001300144Z                                                                72171E5A811392271BFCC1000                                                                                                                                         
1040001300145A0007001040103320013000557824 RODOLFO SOUZA DA SILVA        151181              30042015BRL000000000000000000000000008000000113183   01S0  01300420150000000000080002 20002 1962                            00          000        
1040001300146B   100016806198708RUA RAFAEL DA SILVEIRA LIMA, 500000               FUNCIONARIOS I JOAO PESSOA         58087290PB3004201500000000000000000000000000000000000000000000000000000000000000000000000000000000000000000000000000000000 
1040001300147Z                                                                491751EA35D392519A9221000                                                                                                                                         
1040001300148A0007001040090400023000180452 ISRAEL DOMINGOS DA SILVA      151182              30042015BRL000000000000000000000000008000000113184   01S0  01300420150000000000080002 20002 1962                            00          000        
1040001300149B   100070134814401RUA COELHO PAIVA 227          00000               MANDACARU      JOAO PESSOA         58027180PB3004201500000000000000000000000000000000000000000000000000000000000000000000000000000000000000000000000000000000 
1040001300150Z                                                                BF17C94B613392B2C52771000                                                                                                                                         
1040001300151A0007001040004340013001567639 DIYEGGO WESLLEY TEN RIO DE MED151139              30042015BRL000000000000000000000000028000000113185   01S0  01300420150000000000280005 20500 1960                            00          000        
1040001300152B   100007063241451RUA CICERO BEZERRA            00000               MAIA           PRINCESA ISABEL     58755000PB3004201500000000000000000000000000000000000000000000000000000000000000000000000000000000000000000000000000000000 
1040001300153Z                                                                0D17571999739210CFF661000                                                                                                                                         
1040001300154A0007001040357180023000021922 ZENILDA ESTEVAN CAVALCANTE    151140              30042015BRL000000000000000000000000016000000113186   01S0  01300420150000000000160005 20500 1960                            00          000        
1040001300155B   100004260137433PRESIDENTE CASTELO BRANCO     00000               CENTRO         IGARACY             58775000PB3004201500000000000000000000000000000000000000000000000000000000000000000000000000000000000000000000000000000000 
1040001300156Z                                                                2317F402605392A79FACC1000                                                                                                                                         
1040001300157A0007001040357180023000021736 SUYNEY MANGUEIRA DE LIMA      151141              30042015BRL000000000000000000000000016000000113187   01S0  01300420150000000000160005 20500 1960                            00          000        
1040001300158B   100070049911481PROJETADA                     00000               CENTRO         IGARACY             58775000PB3004201500000000000000000000000000000000000000000000000000000000000000000000000000000000000000000000000000000000 
1040001300159Z                                                                5F17C2E5D113927400EBB1000                                                                                                                                         
1040001300160A0007001040357180023000024131 ROZELIA VALE DA SILVA         151142              30042015BRL000000000000000000000000016000000113188   01S0  01300420150000000000160005 20500 1960                            00          000        
1040001300161B   100070049824406ZONA RURAL                    00000               ZONA RURAL     IGARACY             58775000PB3004201500000000000000000000000000000000000000000000000000000000000000000000000000000000000000000000000000000000 
1040001300162Z                                                                E317410BA7D392A574F001000                                                                                                                                         
1040001300163A0007001040357180023000022767 OCLEIDE DE LIMA LUCENA        151143              30042015BRL000000000000000000000000016000000113189   01S0  01300420150000000000160005 20500 1960                            00          000        
1040001300164B   100003810005401FRANCISCO DE OLIVEIRA         00000               CENTRO         IGARACY             58775000PB3004201500000000000000000000000000000000000000000000000000000000000000000000000000000000000000000000000000000000 
1040001300165Z                                                                3D17A1F2F4F39200667991000                                                                                                                                         
1040001300166A0007001040357180013000018266 MARIA JOS  GOMES DA SILVA     151144              30042015BRL000000000000000000000000016000000113190   01S0  01300420150000000000160005 20500 1960                            00          000        
1040001300167B   100008107003446PROJETADA                     00000               CENTRO         IGARACY             58775000PB3004201500000000000000000000000000000000000000000000000000000000000000000000000000000000000000000000000000000000 
1040001300168Z                                                                32175D98130392B1536771000                                                                                                                                         
1040001300169A0007001040004340023000226789 MARIA LUCIA DA SILVA SANTOS   151145              30042015BRL000000000000000000000000016000000113191   01S0  01300420150000000000160005 20500 1960                            00          000        
1040001300170B   100004816038400ZONA RURAL                    00000               ZONA RURAL     IGARACY             58775000PB3004201500000000000000000000000000000000000000000000000000000000000000000000000000000000000000000000000000000000 
1040001300171Z                                                                1517968F73A3925AE05331000                                                                                                                                         
1040001300172A0007001040004340023000160478 LUSIMAR DA SILVA SOARES       151146              30042015BRL000000000000000000000000016000000113192   01S0  01300420150000000000160005 20500 1960                            00          000        
1040001300173B   100004230091419RUA MANOEL BATISTA DOS SANTOS 00000               FREI DAMIAO    IGARACY             58775000PA3004201500000000000000000000000000000000000000000000000000000000000000000000000000000000000000000000000000000000 
1040001300174Z                                                                94176D6D0453922A878BB1000                                                                                                                                         
1040001300175A0007001040357180023000023984 LUZIMAR FELIX DA SILVA        151147              30042015BRL000000000000000000000000016000000113193   01S0  01300420150000000000160005 20500 1960                            00          000        
1040001300176B   100002014249407PRESIDENTE JO O PESSOA        00000               CENTRO         IGARACY             58775000PB3004201500000000000000000000000000000000000000000000000000000000000000000000000000000000000000000000000000000000 
1040001300177Z                                                                1C174BBA7823920DCC1881000                                                                                                                                         
1040001300178A0007001040357180013000047991 JOSEFA VIEIRA LEITE           151148              30042015BRL000000000000000000000000016000000113194   01S0  01300420150000000000160005 20500 1960                            00          000        
1040001300179B   100003242940423PROJETADA                     00000               CENTRO         IGARACY             58775000PB3004201500000000000000000000000000000000000000000000000000000000000000000000000000000000000000000000000000000000 
1040001300180Z                                                                1817FC902EF3929347D881000                                                                                                                                         
1040001300181A0007001040357180023000023933 JACILEIDE PEREIRA DE LACERDA A151149              30042015BRL000000000000000000000000016000000113195   01S0  01300420150000000000160005 20500 1960                            00          000        
1040001300182B   100004968658460ZONA RURAL                    00000               ZONA RURAL     IGARACY             58775000PB3004201500000000000000000000000000000000000000000000000000000000000000000000000000000000000000000000000000000000 
1040001300183Z                                                                57179D0426739291552991000                                                                                                                                         
1040001300184A0007001040357180013000101449 FABIANA ALVES LEITE           151150              30042015BRL000000000000000000000000016000000113196   01S0  01300420150000000000160005 20500 1960                            00          000        
1040001300185B   100005126553402ZONA RURAL                    00000               ZONA RURAL     IGARACY             58775000PB3004201500000000000000000000000000000000000000000000000000000000000000000000000000000000000000000000000000000000 
1040001300186Z                                                                4B1764D3A39392D8457661000                                                                                                                                         
1040001300187A0007001040004340023000135082 FABIA PATRICIA SILVA LIMA     151151              30042015BRL000000000000000000000000016000000113197   01S0  01300420150000000000160005 20500 1960                            00          000        
1040001300188B   100004397598460ANTONIO CARNEIRO DA SILVA     00000               CENTRO         IGARACY             58775000PB3004201500000000000000000000000000000000000000000000000000000000000000000000000000000000000000000000000000000000 
1040001300189Z                                                                B31764AEF3239260347661000                                                                                                                                         
1040001300190A0007001040357180023000024115 DAMIANA MARIA FERREIRA        151152              30042015BRL000000000000000000000000016000000113198   01S0  01300420150000000000160005 20500 1960                            00          000        
1040001300191B   100009466876414RUA PROJETADA                 00000               CENTRO         IGARACY             58775000PB3004201500000000000000000000000000000000000000000000000000000000000000000000000000000000000000000000000000000000 
1040001300192Z                                                                C617C21A258392884C4441000                                                                                                                                         
1040001300193A0007001040004340023000228838 DACYLENA RODRIGUES VITO       151153              30042015BRL000000000000000000000000016000000113199   01S0  01300420150000000000160005 20500 1960                            00          000        
1040001300194B   100009460905480PREDRO CAMPOS DE SOUZA        00000               CENTRO         IGARACY             58775000PB3004201500000000000000000000000000000000000000000000000000000000000000000000000000000000000000000000000000000000 
1040001300195Z                                                                1C176A75BDD3922CABDCC1000                                                                                                                                         
1040001300196A0007001040357180023000021396 DAIANA LIMA DA SILVA          151154              30042015BRL000000000000000000000000016000000113200   01S0  01300420150000000000160005 20500 1960                            00          000        
1040001300197B   100001449369413RUA PRESIDENTE CASTELO BRANCO 00000               CENTRO         IGARACY             58775000PB3004201500000000000000000000000000000000000000000000000000000000000000000000000000000000000000000000000000000000 
1040001300198Z                                                                5217770F752392794DDBB1000                                                                                                                                         
1040001300199A0007001040357180023000023593 CERLANDIA CARNEIRO DE ARA JO  151155              30042015BRL000000000000000000000000016000000113201   01S0  01300420150000000000160005 20500 1960                            00          000        
1040001300200B   100007942368475REA RURAL                     00000               REA RURAL      IGARACY             58775000PB3004201500000000000000000000000000000000000000000000000000000000000000000000000000000000000000000000000000000000 
1040001300201Z                                                                7F1737E2B9D3923497FEE1000                                                                                                                                         
1040001300202A0007001040357180023000022716 ADELANIA PEREIRA DA SILVA     151156              30042015BRL000000000000000000000000016000000113202   01S0  01300420150000000000160005 20500 1960                            00          000        
1040001300203B   100007056725490RUA SEBASTI O BRASILEIRO      00000               CENTRO         IGARACY             58775000PB3004201500000000000000000000000000000000000000000000000000000000000000000000000000000000000000000000000000000000 
1040001300204Z                                                                9F1738D9B0A3926CB09AA1000                                                                                                                                         
1040001300205A0007001040357180023000024026 JOCIENE ARA JO DE ALMEIDA MATI151157              30042015BRL000000000000000000000000016000000113203   01S0  01300420150000000000160005 20500 1960                            00          000        
1040001300206B   100004586189428SITIO LAGOA SECA              00000               ZONA RURAL     IGARACY             58775000PB3004201500000000000000000000000000000000000000000000000000000000000000000000000000000000000000000000000000000000 
1040001300207Z                                                                47171AA861A392EF520661000                                                                                                                                         
1040001300208A0007001040357180013000118821 JOSELHA PEREIRA DA SILVA      151158              30042015BRL000000000000000000000000016000000113204   01S0  01300420150000000000160005 20500 1960                            00          000        
1040001300209B   100005643733463RUA HONORATO ALVES DE QUEIROZ 00000               CENTRO         IGARACY             58775000PB3004201500000000000000000000000000000000000000000000000000000000000000000000000000000000000000000000000000000000 
1040001300210Z                                                                B5172268A75392E581BEE1000                                                                                                                                         
1040001300211A0007001040073230023000098522 MARIA ALINE DA SILVA          151159              30042015BRL000000000000000000000000016000000113205   01S0  01300420150000000000160005 20500 1960                            00          000        
1040001300212B   100001800681488RUA HONORATO ALVES DE QUEIROZ 00000               CENTRO         IGARACY             58775000PB3004201500000000000000000000000000000000000000000000000000000000000000000000000000000000000000000000000000000000 
1040001300213Z                                                                FF170727346392F1D35221000                                                                                                                                         
1040001300214A0007001040004340023000259113 FRANCISCA TOMAZ FERREIRA      151160              30042015BRL000000000000000000000000016000000113206   01S0  01300420150000000000160005 20500 1960                            00          000        
1040001300215B   100008434641437SEBASTI O CLOVES BRASILEIRO   00000               CENTRO         IGARACY             58775000PB3004201500000000000000000000000000000000000000000000000000000000000000000000000000000000000000000000000000000000 
1040001300216Z                                                                671751557553926FA71CC1000                                                                                                                                         
1040001300217A0007001040357180023000008560 GERALDA FELIX DA SILVA VIEIRA 151161              30042015BRL000000000000000000000000016000000113207   01S0  01300420150000000000160005 20500 1960                            00          000        
1040001300218B   100006613146420RUA PROJETADA                 00000               FREI DAMI O    IGARACY             58775000PB3004201500000000000000000000000000000000000000000000000000000000000000000000000000000000000000000000000000000000 
1040001300219Z                                                                C0178549A803923ECBC001000                                                                                                                                         
1040001300220A0007001040357180023000020918 VILMA VITAL DA SILVA          151162              30042015BRL000000000000000000000000016000000113208   01S0  01300420150000000000160005 20500 1960                            00          000        
1040001300221B   100003873884437SEBASTI O CLOVES BRASILEIRO   00000               CENTRO         IGARACY             58775000PB3004201500000000000000000000000000000000000000000000000000000000000000000000000000000000000000000000000000000000 
1040001300222Z                                                                59172D0C3D33920E721DD1000                                                                                                                                         
1040001300223A0007001040357180023000022678 RUANA KERLY LOPES DA SILVA    151163              30042015BRL000000000000000000000000016000000113209   01S0  01300420150000000000160005 20500 1960                            00          000        
1040001300224B   100070590341456FRANCISCA ALEXANDRINA DA SILVA00000               PADRE ARISTIDESIGARACY             58775000PB3004201500000000000000000000000000000000000000000000000000000000000000000000000000000000000000000000000000000000 
1040001300225Z                                                                90173237D133920008A221000                                                                                                                                         
1040001300226A0007001040004340023000242482 MARIA SIMONE DA SILVA         151164              30042015BRL000000000000000000000000016000000113210   01S0  01300420150000000000160005 20500 1960                            00          000        
1040001300227B   100007290553454RUA.SEBASTI O C.BRASILEIRO SN 00000               AREA RURALA    IGARACY             58775000PB3004201500000000000000000000000000000000000000000000000000000000000000000000000000000000000000000000000000000000 
1040001300228Z                                                                C3176964F903920A2B8881000                                                                                                                                         
1040001300229A0007001040357180023000021841 MARIA IZIDRO PEREIRA VICENTE  151165              30042015BRL000000000000000000000000016000000113211   01S0  01300420150000000000160005 20500 1960                            00          000        
1040001300230B   100003975136405RUA PROJETADA                 00000               ZONA RURAL     IGARACY             58775000PB3004201500000000000000000000000000000000000000000000000000000000000000000000000000000000000000000000000000000000 
1040001300231Z                                                                161766B6B5939280103001000                                                                                                                                         
1040001300232A0007001040357180023000020799 NGELICA VICENTE PEREIRA       151166              30042015BRL000000000000000000000000016000000113212   01S0  01300420150000000000160005 20500 1960                            00          000        
1040001300233B   100012165551412SITIO CATINGA GRANDE          00000               AREA RURAL     IGARACY             58775000PB3004201500000000000000000000000000000000000000000000000000000000000000000000000000000000000000000000000000000000 
1040001300234Z                                                                A417A8116FD39240886FF1000                                                                                                                                         
1040001300235A0007001040357180023000018379 DAMIANA LOPES DA SILVA FERNAND151167              30042015BRL000000000000000000000000016000000113213   01S0  01300420150000000000160005 20500 1960                            00          000        
1040001300236B   100030422028878SITIO TIGRES                  00000               AREA RURAL     IGARACU DO TIETE    58775000PB3004201500000000000000000000000000000000000000000000000000000000000000000000000000000000000000000000000000000000 
1040001300237Z                                                                4C17B4F1BF2392C25A9441000                                                                                                                                         
1040001300238A0007001040004340023000002643 CLEIDE ARAUJO DE LACERDA      151168              30042015BRL000000000000000000000000016000000113214   01S0  01300420150000000000160005 20500 1960                            00          000        
1040001300239B   100003241751406RUA SALUSTIANO MIGUEL DE SOUZA00000               CENTRO         IGARACY             58775000PB3004201500000000000000000000000000000000000000000000000000000000000000000000000000000000000000000000000000000000 
1040001300240Z                                                                DD17D9B38A23924D430AA1000                                                                                                                                         
1040001300241A0007001040357180013000098871 GERALDA MARIANA DA SILVA      151169              30042015BRL000000000000000000000000016000000113215   01S0  01300420150000000000160005 20500 1960                            00          000        
1040001300242B   100098152548472TRAVESSA JOAO MIGUEL DE SOUZA 00000               PADRE ARISTIDESIGARACY             58775000PB3004201500000000000000000000000000000000000000000000000000000000000000000000000000000000000000000000000000000000 
1040001300243Z                                                                1C178D362BE392C15C6221000                                                                                                                                         
1040001300244A0007001040357180023000021655 MARIA DO SOCORRO PEREIRA BRASI151170              30042015BRL000000000000000000000000016000000113216   01S0  01300420150000000000160005 20500 1960                            00          000        
1040001300245B   100011024161420TRAVESSA JO O MIGUEL DE SOUSA 00000               PADRE ARISTIDESIGARACY             58775000PB3004201500000000000000000000000000000000000000000000000000000000000000000000000000000000000000000000000000000000 
1040001300246Z                                                                D817F73D8823929DE61551000                                                                                                                                         
1040001300247A0007001040357180023000019502 MARIA DE FATIMA PEREIRA DA SIL151171              30042015BRL000000000000000000000000016000000113217   01S0  01300420150000000000160005 20500 1960                            00          000        
1040001300248B   100007268038470RUA.ETELVINA BRASILEIRA SN    00000               CENTRO         IGARACY             58775000PB3004201500000000000000000000000000000000000000000000000000000000000000000000000000000000000000000000000000000000 
1040001300249Z                                                                BD179A43281392B0086EE1000                                                                                                                                         
1040001300250A0007001040357180023000021213 KAROLAYNE MIKAELY DA SILVA    151172              30042015BRL000000000000000000000000016000000113218   01S0  01300420150000000000160005 20500 1960                            00          000        
1040001300251B   100070050000489FRANCISCA ALEXANDRE DA SILVS  00000               CENTRO         IGARACY             58775000PB3004201500000000000000000000000000000000000000000000000000000000000000000000000000000000000000000000000000000000 
1040001300252Z                                                                8D17592CDD339248915771000                                                                                                                                         
1040001300253A0007001040357180023000000470 MARIA DO SOCORRO PEREIRA DA SI151173              30042015BRL000000000000000000000000016000000113219   01S0  01300420150000000000160005 20500 1960                            00          000        
1040001300254B   100007251497441ESTELVINO BRASILEIRO          00000               CENTRO         IGARACY             58775000PB3004201500000000000000000000000000000000000000000000000000000000000000000000000000000000000000000000000000000000 
1040001300255Z                                                                D617D1851D139222E5C551000                                                                                                                                         
1040001300256A0007001040004340023000085093 GERLANIA ALVES LEITE          151174              30042015BRL000000000000000000000000016000000113220   01S0  01300420150000000000160005 20500 1960                            00          000        
1040001300257B   100004430873429RUA VALDEMAR SOARES BRASILEIRO00000               CENTRO         IGARACY             58775000PB3004201500000000000000000000000000000000000000000000000000000000000000000000000000000000000000000000000000000000 
1040001300258Z                                                                11172D0E0C1392C585A331000                                                                                                                                         
1040001300259A0007001040357180013000102844 LENILDA BENTO IZIDRO          151175              30042015BRL000000000000000000000000016000000113221   01S0  01300420150000000000160005 20500 1960                            00          000        
1040001300260B   100011192575490RUA.JOA  MIGUEL DE SOUZA S/N  00000               PADRE ANCHIETA IGARACY             58775000PB3004201500000000000000000000000000000000000000000000000000000000000000000000000000000000000000000000000000000000 
1040001300261Z                                                                58177258F34392E0640BB1000                                                                                                                                         
1040001300262A0007001040004340023000167952 MARIA EDLENA ALVES SOUZA      151176              30042015BRL000000000000000000000000016000000113222   01S0  01300420150000000000160005 20500 1960                            00          000        
1040001300263B   100092742793453JO O MIGUEL                   00000               PADRE ARISTIDESIGARACY             58775000PB3004201500000000000000000000000000000000000000000000000000000000000000000000000000000000000000000000000000000000 
1040001300264Z                                                                FE17445100F39299053331000                                                                                                                                         
1040001300265A0007001040357180023000018484 JOSEFA JOSERLANDIA BENTO      151177              30042015BRL000000000000000000000000016000000113223   01S0  01300420150000000000160005 20500 1960                            00          000        
1040001300266B   100045732218831TRAV.JO O MIGUEL DE SOUZA SN  00000               PADRE ARISTIDESIGARACY             58775000PB3004201500000000000000000000000000000000000000000000000000000000000000000000000000000000000000000000000000000000 
1040001300267Z                                                                C6174802CCB3929BC6A221000                                                                                                                                         
1040001300268A0007001040357180023000025014 MARIA JAQUELINE ARA JO SILVA  151178              30042015BRL000000000000000000000000016000000113224   01S0  01300420150000000000160005 20500 1960                            00          000        
1040001300269B   100011113996463RUA MANOEL BATISTA DOS SANTOS 00000               CENTRO         IGARACY             58400000PB3004201500000000000000000000000000000000000000000000000000000000000000000000000000000000000000000000000000000000 
1040001300270Z                                                                AD17605F9473921C816991000                                                                                                                                         
1040001300271A0007001040004340013001555614 MARIA DE LOURDES GOMES PATRIOT150475              30042015BRL000000000000000000000000010000000113225   01S0  01300420150000000000100002 20500 1957                            00          000        
1040001300272B   100003488459446RUA MAJ FELICIANO, S/N        00000               CRUZEIRO       PRINCESA ISABEL     58755000PB3004201500000000000000000000000000000000000000000000000000000000000000000000000000000000000000000000000000000000 
1040001300273Z                                                                DF17B69C92D3926469FCC1000                                                                                                                                         
1040001300274A0007001040004340013001567639 DIYEGGO WESLLEY TEN RIO DE MED150476              30042015BRL000000000000000000000000010000000113226   01S0  01300420150000000000100002 20500 1957                            00          000        
1040001300275B   100007063241451RUA CICERO BEZERRA            00000               MAIA           PRINCESA ISABEL     58755000PB3004201500000000000000000000000000000000000000000000000000000000000000000000000000000000000000000000000000000000 
1040001300276Z                                                                181745FD1313923C7FECC1000                                                                                                                                         
1040001300277A0007001040004000013000385166 VANESSA RICARTE FERNANDES     150477              30042015BRL000000000000000000000000012000000113227   01S0  01300420150000000000120002 20500 1957                            00          000        
1040001300278B   100004915975410RUA PADRE JOAQUIM CIRILO DE S 00000               CENTRO         SAO JOAO DO RIO DO P58910000PB3004201500000000000000000000000000000000000000000000000000000000000000000000000000000000000000000000000000000000 
1040001300279Z                                                                F617F162D773922DDA9FF1000                                                                                                                                         
1040001300280A0007001040055840013000297956 EVELMA MARIA DA CONCEI  O     150478              30042015BRL000000000000000000000000012000000113228   01S0  01300420150000000000120002 20500 1957                            00          000        
1040001300281B   100004861935431CNJ.CEOP                      00000               CENTRO         LASTRO              58820000PB3004201500000000000000000000000000000000000000000000000000000000000000000000000000000000000000000000000000000000 
1040001300282Z                                                                31170ABC26339274041331000                                                                                                                                         
1040001300283A0007001040055840013000351560 FERNANDA MIRELLY CELESTINA NOG150479              30042015BRL000000000000000000000000012000000113229   01S0  01300420150000000000120002 20500 1957                            00          000        
1040001300284B   100009761671402PEDRO ABRANTES                00000               CENTRO         LASTRO              58820000PB3004201500000000000000000000000000000000000000000000000000000000000000000000000000000000000000000000000000000000 
1040001300285Z                                                                5B177AF7C2D392615DCAA1000                                                                                                                                         
1040001300286A0007001040055840013000351250 FRANCIMARA GOMES SARMENTO     150480              30042015BRL000000000000000000000000012000000113230   01S0  01300420150000000000120002 20500 1957                            00          000        
1040001300287B   100007169455412RUA PEDRO ABRANTES            00000               CENTRO         LASTRO              58820000PB3004201500000000000000000000000000000000000000000000000000000000000000000000000000000000000000000000000000000000 
1040001300288Z                                                                BD175F94D003927A248111000                                                                                                                                         
1040001300289A0007001040055840013000275340 JACKELINE SOARES SARMENTO     150481              30042015BRL000000000000000000000000012000000113231   01S0  01300420150000000000120002 20500 1957                            00          000        
1040001300290B   100004815959455RUA DO CAMPESTRE              00000               CENTRO         LASTRO              58820000PB3004201500000000000000000000000000000000000000000000000000000000000000000000000000000000000000000000000000000000 
1040001300291Z                                                                2C17D2C215539292E0E771000                                                                                                                                         
1040001300292A0007001040055840013000351608 JANAINE SOARES SARMENTO       150482              30042015BRL000000000000000000000000012000000113232   01S0  01300420150000000000120002 20500 1957                            00          000        
1040001300293B   100005383602402RUA PROJ                      00000               CENTRO         LASTRO              58820000PB3004201500000000000000000000000000000000000000000000000000000000000000000000000000000000000000000000000000000000 
1040001300294Z                                                                5017919850A392D3F8ACC1000                                                                                                                                         
1040001300295A0007001040055840013000881542 JONES GON ALVES DE OLIVEIRA   150483              30042015BRL000000000000000000000000012000000113233   01S0  01300420150000000000120002 20500 1957                            00          000        
1040001300296B   100042510511491RUA RONALDO SARMENTO          00000               CENTRO         LASTRO              58820000PB3004201500000000000000000000000000000000000000000000000000000000000000000000000000000000000000000000000000000000 
1040001300297Z                                                                DF17E3C7C8F3926892A771000                                                                                                                                         
1040001300298A0007001040055840013000350288 LARISSA JUVENCIO ROMEU        150484              30042015BRL000000000000000000000000012000000113234   01S0  01300420150000000000120002 20500 1957                            00          000        
1040001300299B   100009756872470RUA PROJETADA                 00000               CENTRO         LASTRO              58820000PB3004201500000000000000000000000000000000000000000000000000000000000000000000000000000000000000000000000000000000 
1040001300300Z                                                                A6174BD474E392A4413AA1000                                                                                                                                         
1040001300301A0007001040055840013000350474 LUCAS AUGUSTO LOUREN O FURTADO150485              30042015BRL000000000000000000000000012000000113235   01S0  01300420150000000000120002 20500 1957                            00          000        
1040001300302B   100010701916478RUA SEBASTI O PEDRO DE OLIVEIR00000               CENTRO         LASTRO              58820000PB3004201500000000000000000000000000000000000000000000000000000000000000000000000000000000000000000000000000000000 
1040001300303Z                                                                FB17109E28F392C1803AA1000                                                                                                                                         
1040001300304A0007001040055840013000351969 LUCIANA MARIA FERREIRA        150486              30042015BRL000000000000000000000000012000000113236   01S0  01300420150000000000120002 20500 1957                            00          000        
1040001300305B   100009756907444DAMI O LUIZ                   00000               ZONA RURAL     LASTRO              58820000PB3004201500000000000000000000000000000000000000000000000000000000000000000000000000000000000000000000000000000000 
1040001300306Z                                                                C91739AAF88392ECA1E001000                                                                                                                                         
1040001300307A0007001040055840013000165111 MARIA ISL NIA CABOCLO         150487              30042015BRL000000000000000000000000012000000113237   01S0  01300420150000000000120002 20500 1957                            00          000        
1040001300308B   100007627863457VILA JARDIM                   00000               CENTRO         LASTRO              58820000PB3004201500000000000000000000000000000000000000000000000000000000000000000000000000000000000000000000000000000000 
1040001300309Z                                                                4217E7C720A392E5F25111000                                                                                                                                         
1040001300310A0007001040055840013000991135 MARIA MARGARETTE TATHE AUGUSTO150488              30042015BRL000000000000000000000000012000000113238   01S0  01300420150000000000120002 20500 1957                            00          000        
1040001300311B   100006049783403RUA RAIMUNDO ABRANTES         00000               CENTRO         LASTRO              58820000PB3004201500000000000000000000000000000000000000000000000000000000000000000000000000000000000000000000000000000000 
1040001300312Z                                                                06171AC355239240303441000                                                                                                                                         
1040001300313A0007001040055840013000350393 WENNYA KARLA SARMENTO         150489              30042015BRL000000000000000000000000012000000113239   01S0  01300420150000000000120002 20500 1957                            00          000        
1040001300314B   100007509255406CONJ CEHAP                    00000               CENTRO         LASTRO              58820000PB3004201500000000000000000000000000000000000000000000000000000000000000000000000000000000000000000000000000000000 
1040001300315Z                                                                DE172BD7CE639237EC9551000                                                                                                                                         
1040001300316A0007001040055840013000352442 WILDEMARA SARMENTO DE SOUSA   150490              30042015BRL000000000000000000000000012000000113240   01S0  01300420150000000000120002 20500 1957                            00          000        
1040001300317B   100006892867405RUA PEDRO ABRANTES            00000               CENTRO         LASTRO              58820000PB3004201500000000000000000000000000000000000000000000000000000000000000000000000000000000000000000000000000000000 
1040001300318Z                                                                5117EC3C61C39224425AA1000                                                                                                                                         
1040001300319A0007001040055840013000100478 WILMENTO MENDES SARMENTO JUNIO150491              30042015BRL000000000000000000000000012000000113241   01S0  01300420150000000000120002 20500 1957                            00          000        
1040001300320B   100009756847441PROFESSOR ANTONIO SARMENTO    00000               CENTRO         LASTRO              58820000PB3004201500000000000000000000000000000000000000000000000000000000000000000000000000000000000000000000000000000000 
1040001300321Z                                                                FA17E3B73BF3928CD53001000                                                                                                                                         
1040001300322A0007001040055840013000350857 YURI BEZERRA CANDIDO          150492              30042015BRL000000000000000000000000012000000113242   01S0  01300420150000000000120002 20500 1957                            00          000        
1040001300323B   100009756867477RUA PROJ                      00000               CAMPESTRE      LASTRO              58820000PB3004201500000000000000000000000000000000000000000000000000000000000000000000000000000000000000000000000000000000 
1040001300324Z                                                                8D17F7674A83922FC6B001000                                                                                                                                         
1040001300325A0007001040055840013000350296 AMANDA MARIA DE OLIVEIRA      150493              30042015BRL000000000000000000000000012000000113243   01S0  01300420150000000000120002 20500 1957                            00          000        
1040001300326B   100070856136450NOSSA SENHORA DO CARMO        00000               CENTRO         LASTRO              58820000PB3004201500000000000000000000000000000000000000000000000000000000000000000000000000000000000000000000000000000000 
1040001300327Z                                                                8517EDE670539243030FF1000                                                                                                                                         
1040001300328A0007001040055840013000364840 ERICLIS ROPSENO DE PAULA      150494              30042015BRL000000000000000000000000012000000113244   01S0  01300420150000000000120002 20500 1957                            00          000        
1040001300329B   100009780143408PROJETADA                     00000               CAMPESTRE      LASTRO              58820000PB3004201500000000000000000000000000000000000000000000000000000000000000000000000000000000000000000000000000000000 
1040001300330Z                                                                93173D13A2B3925CAF8EE1000                                                                                                                                         
1040001300331A0007001040055840013000274964 FRANCISCA ABRANTES SARMENTO   150495              30042015BRL000000000000000000000000012000000113245   01S0  01300420150000000000120002 20500 1957                            00          000        
1040001300332B   100004185388403PEDRO ABRANTES                00000               CENTRO         LASTRO              58820000PB3004201500000000000000000000000000000000000000000000000000000000000000000000000000000000000000000000000000000000 
1040001300333Z                                                                A2175BF61CF392DE32C991000                                                                                                                                         
1040001300334A0007001040055840013000404817 FRANCISCA FABIANA DA SILVA    150496              30042015BRL000000000000000000000000012000000113246   01S0  01300420150000000000120002 20500 1957                            00          000        
1040001300335B   100005216962409SITIO JARDIM                  00000               RURAL          LASTRO              58820000PB3004201500000000000000000000000000000000000000000000000000000000000000000000000000000000000000000000000000000000 
1040001300336Z                                                                2517877080339282403111000                                                                                                                                         
1040001300337A0007001040055840013000352680 FRANCISCA MARTA DOS SANTOS ROD150497              30042015BRL000000000000000000000000012000000113247   01S0  01300420150000000000120002 20500 1957                            00          000        
1040001300338B   100006300639401SITIO JARDIM                  00000               RURAL          LASTRO              58820000PB3004201500000000000000000000000000000000000000000000000000000000000000000000000000000000000000000000000000000000 
1040001300339Z                                                                E817B1317153920FA34331000                                                                                                                                         
1040001300340A0007001040055840013000351322 FRANCISCO IGOR OLIVEIRA DA SIL150498              30042015BRL000000000000000000000000012000000113248   01S0  01300420150000000000120002 20500 1957                            00          000        
1040001300341B   100009759113414PROJETADA                     00000               CENTRO         LASTRO              58820000PB3004201500000000000000000000000000000000000000000000000000000000000000000000000000000000000000000000000000000000 
1040001300342Z                                                                A1178AA47AF392E38E1441000                                                                                                                                         
1040001300343A0007001040055840013000042605 GERLANIA ABRANTES SARMENTO AUG150499              30042015BRL000000000000000000000000012000000113249   01S0  01300420150000000000120002 20500 1957                            00          000        
1040001300344B   100003555515438VILA JARDIM                   00000               CENTRO         LASTRO              58820000PB3004201500000000000000000000000000000000000000000000000000000000000000000000000000000000000000000000000000000000 
1040001300345Z                                                                BA17E3D4F473922CC14CC1000                                                                                                                                         
1040001300346A0007001040055840013000352256 LAENIA ROMANA CANUTO DE SOUSA 150500              30042015BRL000000000000000000000000012000000113250   01S0  01300420150000000000120002 20500 1957                            00          000        
1040001300347B   100009761720462JOILTON PEREIRA ALVES         00000               CENTRO         LASTRO              58820000PB3004201500000000000000000000000000000000000000000000000000000000000000000000000000000000000000000000000000000000 
1040001300348Z                                                                8717E5C2D90392A89CF551000                                                                                                                                         
1040001300349A0007001040055840013000918330 MARIA DO SOCORRO PEREIRA MARTI150501              30042015BRL000000000000000000000000012000000113251   01S0  01300420150000000000120002 20500 1957                            00          000        
1040001300350B   100088564274434PROJETADA                     00000               CENTRO         LASTRO              58820000PB3004201500000000000000000000000000000000000000000000000000000000000000000000000000000000000000000000000000000000 
1040001300351Z                                                                4017D6F940B3924C1BC441000                                                                                                                                         
1040001300352A0007001040055840013000330643 MARIA EDUARDA SARMENTO        150502              30042015BRL000000000000000000000000012000000113252   01S0  01300420150000000000120002 20500 1957                            00          000        
1040001300353B   100009759092409RONALDO SARMENTO              00000               CENTRO         LASTRO              58820000PB3004201500000000000000000000000000000000000000000000000000000000000000000000000000000000000000000000000000000000 
1040001300354Z                                                                E21709B77203921F9CA001000                                                                                                                                         
1040001300355A0007001040055840013000404841 MARIA GEISSA RODRIGUES DOS SAN150503              30042015BRL000000000000000000000000012000000113253   01S0  01300420150000000000120002 20500 1957                            00          000        
1040001300356B   100009761686426SITIO JARDIM                  00000               ZONA RURAL     LASTRO              58820000PB3004201500000000000000000000000000000000000000000000000000000000000000000000000000000000000000000000000000000000 
1040001300357Z                                                                9017967C50A392715C5771000                                                                                                                                         
1040001300358A0007001040055840013000270187 MARIA GORETH DA SILVA         150504              30042015BRL000000000000000000000000012000000113254   01S0  01300420150000000000120002 20500 1957                            00          000        
1040001300359B   100003559136407RONALDO SARMENTO              00000               CENTRO         LASTRO              58820000PB3004201500000000000000000000000000000000000000000000000000000000000000000000000000000000000000000000000000000000 
1040001300360Z                                                                1D1747C4D823922E077CC1000                                                                                                                                         
1040001300361A0007001040055840013000126850 MARIA LUCIA VIEIRA DA SILVA AN150505              30042015BRL000000000000000000000000012000000113255   01S0  01300420150000000000120002 20500 1957                            00          000        
1040001300362B   100007106436402PROJETO MARIZ                 00000               CENTRO         LASTRO              58820000PB3004201500000000000000000000000000000000000000000000000000000000000000000000000000000000000000000000000000000000 
1040001300363Z                                                                0617D29459A3927C833EE1000                                                                                                                                         
1040001300364A0007001040055840013000352230 MARICELIA GOMES FURTADO       150506              30042015BRL000000000000000000000000012000000113256   01S0  01300420150000000000120002 20500 1957                            00          000        
1040001300365B   100006007878422CONJUNTO CEHAP                00000               POPULAR        LASTRO              58820000PB3004201500000000000000000000000000000000000000000000000000000000000000000000000000000000000000000000000000000000 
1040001300366Z                                                                AC178C9A41C392CBC78EE1000                                                                                                                                         
1040001300367A0007001040055840013000350199 MARLA RODRIGUES SARMENTO      150507              30042015BRL000000000000000000000000012000000113257   01S0  01300420150000000000120002 20500 1957                            00          000        
1040001300368B   100010928274470PEDRO ABRANTES FERREIRA       00000               CENTRO         LASTRO              58820000PB3004201500000000000000000000000000000000000000000000000000000000000000000000000000000000000000000000000000000000 
1040001300369Z                                                                80174900B52392D96B6991000                                                                                                                                         
1040001300370A0007001040055840013000404868 RAURIKLENIO DA SILVA          150508              30042015BRL000000000000000000000000012000000113258   01S0  01300420150000000000120002 20500 1957                            00          000        
1040001300371B   100009416431400SEBASTIAO PEDRO DE OLIVEIRA   00000               CENTRO         LASTRO              58820000PB3004201500000000000000000000000000000000000000000000000000000000000000000000000000000000000000000000000000000000 
1040001300372Z                                                                99177C409133927BEF4881000                                                                                                                                         
1040001300373A0007001040357180013000155638 ANTONIA REUZA AVELINO SILVA   150509              30042015BRL000000000000000000000000012000000113259   01S0  01300420150000000000120002 20500 1957                            00          000        
1040001300374B   100005340967433SITIO PEIXOTO                 00000               ZONA RURAL     PIANCO              58765000PB3004201500000000000000000000000000000000000000000000000000000000000000000000000000000000000000000000000000000000 
1040001300375Z                                                                80171FBE2AE392F264F991000                                                                                                                                         
1040001300376A0007001040357180013000155522 CCERO COITINHO FERNANDES      150510              30042015BRL000000000000000000000000012000000113260   01S0  01300420150000000000120002 20500 1957                            00          000        
1040001300377B   100010059664436SITIO PEIXOTO                 00000               ZONA RURAL     PIANCO              58765000PB3004201500000000000000000000000000000000000000000000000000000000000000000000000000000000000000000000000000000000 
1040001300378Z                                                                2D171E0DF90392B8906111000                                                                                                                                         
1040001300379A0007001040357180013000154992 DANIEL VICENTE DA SILVA SOUZA 150511              30042015BRL000000000000000000000000012000000113261   01S0  01300420150000000000120002 20500 1957                            00          000        
1040001300380B   100006801392492SITIO CRA BAS                 00000               ZONA RURAL     PIANCO              58765000PB3004201500000000000000000000000000000000000000000000000000000000000000000000000000000000000000000000000000000000 
1040001300381Z                                                                6A17D0231623929FB85551000                                                                                                                                         
1040001300382A0007001040357180013000155034 DOMINGOS ALUCINO DE SOUZA     150512              30042015BRL000000000000000000000000012000000113262   01S0  01300420150000000000120002 20500 1957                            00          000        
1040001300383B   100008029953496SITIO CRA BAS                 00000               ZONA RURAL     PIANCO              58765000PB3004201500000000000000000000000000000000000000000000000000000000000000000000000000000000000000000000000000000000 
1040001300384Z                                                                3817998036E39264D6CCC1000                                                                                                                                         
1040001300385A0007001040357180013000154984 EDILENE VICENTE LIRA          150513              30042015BRL000000000000000000000000012000000113263   01S0  01300420150000000000120002 20500 1957                            00          000        
1040001300386B   100009158773410SITIO CRA BAS                 00000               ZONA RURAL     PIANCO              58765000PB3004201500000000000000000000000000000000000000000000000000000000000000000000000000000000000000000000000000000000 
1040001300387Z                                                                7217F5EDDA9392BB91D111000                                                                                                                                         
1040001300388A0007001040357180013000155573 ERIVANILDA AVELINO SILVA FERNA150514              30042015BRL000000000000000000000000012000000113264   01S0  01300420150000000000120002 20500 1957                            00          000        
1040001300389B   100011696388481SITIO CO BRAS                 00000               ZONA RURAL     PIANCO              58765000PB3004201500000000000000000000000000000000000000000000000000000000000000000000000000000000000000000000000000000000 
1040001300390Z                                                                9A179A94A223925F6B4991000                                                                                                                                         
1040001300391A0007001040357180013000155891 FRANCINETE BARBOSA            150515              30042015BRL000000000000000000000000012000000113265   01S0  01300420150000000000120002 20500 1957                            00          000        
1040001300392B   100007694993413SITIO CO BRAS                 00000               ZONA RURAL     PIANCO              58765000PB3004201500000000000000000000000000000000000000000000000000000000000000000000000000000000000000000000000000000000 
1040001300393Z                                                                79177C0CE0339281C53111000                                                                                                                                         
1040001300394A0007001040357180013000155999 GERALDO MARINHO DA SILVA      150516              30042015BRL000000000000000000000000012000000113266   01S0  01300420150000000000120002 20500 1957                            00          000        
1040001300395B   100005370448418SITIO COIBRAS                 00000               ZONA RURAL     PIANCO              58765000PB3004201500000000000000000000000000000000000000000000000000000000000000000000000000000000000000000000000000000000 
1040001300396Z                                                                741735CCCFC392D9AF2441000                                                                                                                                         
1040001300397A0007001040357180013000155549 GERALDO L. SIGISMUNDO FENANDO 150517              30042015BRL000000000000000000000000012000000113267   01S0  01300420150000000000120002 20500 1957                            00          000        
1040001300398B   100013235246819SITIO PEIXOTO                 00000               ZONA RURAL     PIANCO              58765000PB3004201500000000000000000000000000000000000000000000000000000000000000000000000000000000000000000000000000000000 
1040001300399Z                                                                D21797C322A39225990001000                                                                                                                                         
1040001300400A0007001040357180013000155409 GERMANILDO DANTAS HENRIQUE    150518              30042015BRL000000000000000000000000012000000113268   01S0  01300420150000000000120002 20500 1957                            00          000        
1040001300401B   100006778015489SITIO PEIXOTO                 00000               ZONA RURAL     PIANCO              58765000PB3004201500000000000000000000000000000000000000000000000000000000000000000000000000000000000000000000000000000000 
1040001300402Z                                                                7717E17C9B1392C9D62771000                                                                                                                                         
1040001300403A0007001040357180013000156774 HELENO SEVERO DA SILVA        150519              30042015BRL000000000000000000000000012000000113269   01S0  01300420150000000000120002 20500 1957                            00          000        
1040001300404B   100073890499449SITIO PEIXOTO                 00000               ZONA RURAL     PIANCO              58765000PB3004201500000000000000000000000000000000000000000000000000000000000000000000000000000000000000000000000000000000 
1040001300405Z                                                                B517B0267C139209C07771000                                                                                                                                         
1040001300406A0007001040357180013000155506 JOS  ALVES NETO               150520              30042015BRL000000000000000000000000012000000113270   01S0  01300420150000000000120002 20500 1957                            00          000        
1040001300407B   100002549414438SITIO COIBRAS                 00000               ZONA RURAL     PIANCO              58765000PB3004201500000000000000000000000000000000000000000000000000000000000000000000000000000000000000000000000000000000 
1040001300408Z                                                                3F17CD41B9E3923E9E1991000                                                                                                                                         
1040001300409A0007001040357180013000155271 JOS  LOPES FLORENCO           150521              30042015BRL000000000000000000000000012000000113271   01S0  01300420150000000000120002 20500 1957                            00          000        
1040001300410B   100054408571415SITIO PEXOTO                  00000               ZONA RURAL     PIANCO              58765000PB3004201500000000000000000000000000000000000000000000000000000000000000000000000000000000000000000000000000000000 
1040001300411Z                                                                8117779694B39239A59331000                                                                                                                                         
1040001300412A0007001040357180013000155220 JOSILENE FLORENCIO            150522              30042015BRL000000000000000000000000012000000113272   01S0  01300420150000000000120002 20500 1957                            00          000        
